:1078000011E0A0E0B1E0E4E8FFE702C005900D92CE
:10781000A030B107D9F712E0A0E0B1E001C01D929D
:10782000AE30B107E1F711248FEF98E09EBF8DBF16
:107830008091600088618093600010926000389AA7
:10784000409A84B18C6284B92A9A80E58CBD1DBCB3
:1078500081E063E070E049EA6FD281E062E070E0CD
:107860004EEF6AD281E063E070E047EB65D281E0E1
:1078700064E070E040E060D281E065E070E04FEFEE
:107880005BD281E066E070E04FEF56D281E067E0C6
:1078900070E04FEF51D281E068E070E040E04CD200
:1078A00081E069E070E040E047D281E06AE070E0AA
:1078B00048E042D281E06BE070E04CED3DD281E0E7
:1078C0006CE070E041E038D281E06DE070E042E0D1
:1078D00033D281E06EE070E043E02ED281E06FE0D1
:1078E00070E049EA29D281E060E170E04EEF24D2F5
:1078F00081E061E170E047EB1FD281E062E170E07E
:1079000041EB1AD281E06AE170E045E515D281E0F1
:107910006BE170E045E510D281E060E074E041E0A9
:107920000BD281E064E074E040E006D281E065E0E3
:1079300074E047E101D281E061E074E041E0FCD114
:1079400080E063E074E040E0F7D1833161F481E0EE
:1079500061E074E042E0F0D180E063E074E040E098
:10796000EBD1843171F081E061E074E040E1E4D179
:10797000809100018F5F80930001853069F6F4D11A
:10798000CBCF86E0C0D1EE24FF24870180E063E006
:1079900074E040E0D1D1873109F03FC080E066E279
:1079A00074E040E0C9D1E82E80E067E274E040E096
:1079B000C3D1FF24FE2CEE2490E0E82AF92A80E0CF
:1079C00068E274E040E0B8D1082F80E069E274E03A
:1079D00040E0B2D110E0102F002790E0082B192BC7
:1079E000A8014E0D5F1D452F552781E068E274E028
:1079F000A3D1E00E81E069E274E04E2D9DD181E0DB
:107A000061E074E040E498D1FF24F39413E0E12EA8
:107A1000B5E0DB2EA1E1CA2E11C00894E11CF11CD7
:107A2000011D111D89E6E81689E8F80689E00807B6
:107A300080E0180708F4AACF97D1A8CFEBD1982FF0
:107A4000803319F4F092010162C080910101882312
:107A500009F457C19133A1F4DDD1803209F049C155
:107A600084E19ED181E49CD186E59AD182E598D1CA
:107A700080E296D189E494D183E592D180E530C14A
:107A8000903429F4C7D1863808F441C022C091341B
:107A900091F4C0D1803811F482E029C1813811F409
:107AA00081E025C1823811F480E121C1883909F0D3
:107AB0001DC183E01CC1923431F414E101C0AAD18C
:107AC0001150E8F724C0953431F4A4D1A3D1A2D148
:107AD000A1D1A0D11CC09035D1F09235C1F0913523
:107AE00021F417D282E00FD10CC1953591F492D1D7
:107AF000809306018FD180930701809106019091B8
:107B00000701880F991F909307018093060101D206
:107B100095CF9635A9F47ED1803321F07BD17AD1EF
:107B200079D1E4C077D176D1182F74D1112311F413
:107B30008EE1DDC0113011F485E9D9C08FE0D7C0E6
:107B4000943609F07FC066D18093090263D1809397
:107B5000080210920C025ED1853411F4F0920C02EE
:107B600000E010E007C056D1F801E85FFE4F8083C7
:107B70000F5F1F4F809108029091090208171907A3
:107B800090F348D1803209F0B4C080910C02882370
:107B900009F140E050E016C0F999FECF809106014E
:107BA0009091070192BD81BDFA01E85FFE4F2081EF
:107BB00020BDFA9AF99A01969093070180930601E5
:107BC0004F5F5F4F80910802909109024817590753
:107BD00018F336C04091020150910301F999FECF8C
:107BE000FA01E0925700E89507B600FCFDCFBA0114
:107BF000A8E0B1E02C9111968C91119790E0982F0C
:107C00008827820F911D1296FB010C01F0925700FC
:107C1000E89511246E5F7F4FF1E0A838BF0751F758
:107C2000FA01D0925700E89507B600FCFDCFC0924C
:107C30005700E89540585F4F50930301409302016D
:107C400084E14EC0943709F03FC0E4D0809309022C
:107C5000E1D08093080210920C02DCD0853411F43C
:107C6000F0920C02D7D0803209F0E8CE84E198D0AF
:107C700000E010E021C080910C02882359F0F999AE
:107C8000FECF809106019091070192BD81BDF89AC7
:107C900080B506C0E0910601F0910701E4918E2FB6
:107CA0007FD0809106019091070101969093070182
:107CB000809306010F5F1F4F809108029091090287
:107CC00008171907C0F20DC0953771F4A3D08032A0
:107CD00081F484E165D08EE163D085E961D08FE0E5
:107CE0005FD080E15DD0AACE963719F480E0F9D05C
:107CF000A5CE809100018F5F80930001853009F04F
:107D00009DCE32D09BCE282F31E044EF51E00BC006
:107D100088B1832788B988EE93E0FA013197F1F7AB
:107D20000197D9F72150222399F708958EBD0DB4FC
:107D300007FEFDCF8EB508951F93CF93DF93EB0120
:107D4000142F2A98882311F080EF01C08FE0EEDF16
:107D50008D2F9927EBDF8C2FE9DF812FE7DF2A9A20
:107D6000DF91CF911F91089581E061E074E040E1DF
:107D7000E3DFE0910401F09105010995089580E0A9
:107D800063E074E040E0D8DF8C3109F4EDDF80E09F
:107D900063E074E040E0D0DF882309F4E5CF089584
:107DA0001F93CF93DF93182FEADF80E064E274E043
:107DB00040E0C2DF90E0D82FCC2780E065E274E09D
:107DC00040E0BADFC80FD11DBE01777087E06F3F7A
:107DD000780719F460E070E402C06050704C81E0F4
:107DE000412FAADF21964D2F5527219781E064E28C
:107DF00074E0A2DFCE018F5F482F81E065E274E07E
:107E00009BDF81E061E074E040E296DFDF91CF919B
:107E10001F910895A0E0B0E0EFE0FFE386C0EE24FC
:107E2000FF248701ACDF80E066E274E040E084DF9D
:107E3000C82E80E067E274E040E07EDFD82E089430
:107E4000E11CF11C011D111D89E6E81689E8F80600
:107E500089E0080780E0180708F086DF8C2D90E0A5
:107E6000982F88272D2D30E0822B932B892BD1F250
:107E700080E068E274E040E05FDF082F80E069E2C4
:107E800074E040E059DF10E0D02FCC2790E0C82B01
:107E9000D92BBE01777097E06F3F790719F460E046
:107EA00070E602C06050704A80E040E045DF182F65
:107EB00021964D2F5527219781E068E274E03CDF41
:107EC000CE018F5F482F81E069E274E035DF81E009
:107ED00061E074E040E430DF812FCDB7DEB7E8E049
:107EE00040C01F93182F96DF803249F484E158DF99
:107EF0001A3F11F0812F54DF80E152DF08C08091DA
:107F000000018F5F80930001853009F42DDF1F9100
:107F100008958AEFE6CF2F923F924F925F926F9231
:107F20007F928F929F92AF92BF92CF92DF92EF9209
:107F3000FF920F931F93CF93DF93CDB7DEB7CA1B8A
:107F4000DB0B0FB6F894DEBF0FBECDBF09942A88B5
:107F5000398848885F846E847D848C849B84AA845D
:107F6000B984C884DF80EE80FD800C811B81AA81EA
:107F7000B981CE0FD11D0FB6F894DEBF0FBECDBFB5
:047F8000ED01089572
:040000030000780081
:00000001FF
