:107800000C94343C0C94513C0C94513C0C94513CE1
:107810000C94513C0C94513C0C94513C0C94513CB4
:107820000C94513C0C94513C0C94513C0C94513CA4
:107830000C94513C0C94513C0C94513C0C94513C94
:107840000C94513C0C94513C0C94513C0C94513C84
:107850000C94513C0C94513C0C94513C0C94513C74
:107860000C94513C0C94513C11241FBECFEFD8E036
:10787000DEBFCDBF11E0A0E0B1E0E6E6F1E802C076
:1078800005900D92A230B107D9F712E0A2E0B1E065
:1078900001C01D92AC30B107E1F70E94D13D0C94BC
:1078A000B1400C94003C2A98882331F080EF8EBDC3
:1078B0000DB407FEFDCF05C08FE08EBD0DB407FEF1
:1078C000FDCF8EB57EBD0DB407FEFDCF8EB56EBD6E
:1078D0000DB407FEFDCF8EB54EBD0DB407FEFDCF36
:1078E0008EB52A9A08958EBD0DB407FEFDCF8EB5D4
:1078F000089580E063E074E040E00E94533C8C31E6
:1079000059F481E061E074E040E10E94533CE09171
:107910000301F0910401099580E063E074E040E028
:107920000E94533C882359F481E061E074E040E117
:107930000E94533CE0910301F091040109950895E0
:10794000CF92DF92EF92FF920F931F93CF93DF932B
:10795000EE24FF2487010E94793C80E066E274E017
:1079600040E00E94533CC82E80E067E274E040E0B3
:107970000E94533CD82E0894E11CF11C011D111DDE
:1079800081EDE81682E1F80683E1080780E0180738
:1079900028F0E0910301F09104010995DC2DC0E08D
:1079A0008D2D90E08C2B9D2B892BA9F280E068E235
:1079B00074E040E00E94533C182F80E069E274E0DC
:1079C00040E00E94533C312F20E0C82FD0E0C22B72
:1079D000D32BBE01777097E06F3F790719F460E011
:1079E00070E602C06050704A80E040E00E94533C64
:1079F000182F9E012F5F3F4F81E068E274E0432F14
:107A00000E94533CCE018F5F482F81E069E274E011
:107A10000E94533C81E061E074E040E40E94533CEA
:107A2000812FDF91CF911F910F91FF90EF90DF9009
:107A3000CF9008951F93182F03C00E94A03C1150AF
:107A40001123D9F71F910895FF920F931F93CF939E
:107A5000DF93F82E0E94793C80E064E274E040E01D
:107A60000E94533C182F00E080E065E274E040E0A3
:107A70000E94533CE801C80FD11DBE01777087E01A
:107A80006F3F780719F460E070E402C06050704CFA
:107A900081E04F2D0E94533C9E012F5F3F4F81E0BC
:107AA00064E274E0432F0E94533CCE018F5F482F65
:107AB00081E065E274E00E94533C81E061E074E0A3
:107AC00040E20E94533CDF91CF911F910F91FF90B4
:107AD00008950E94A03C803239F484E10E94243D44
:107AE00080E10E94243D0895809102018F5F809380
:107AF0000201853029F4E0910301F0910401099518
:107B000008951F93182F0E94A03C803251F484E105
:107B10000E94243D812F0E94243D80E10E94243D4B
:107B20000CC0809102018F5F80930201853029F49F
:107B3000E0910301F091040109951F9108951F93AD
:107B4000982F9595959595959595905D8F708A3020
:107B50001CF0182F195A02C0182F105D892F0E948F
:107B6000243D812F0E94243D1F9108951F930E9460
:107B7000A03C182F0E94243D113614F0175503C065
:107B800010330CF01053812F1F9108951F930E9402
:107B9000B63D182F0E94B63D1295107F810F1F91A0
:107BA0000895EF92FF920F931F93CF93DF930000FE
:107BB00084B18C6284B92A9A80E58CBD1DBC81E0B9
:107BC00063E070E049EA0E94533C81E062E070E0CB
:107BD0004EEF0E94533C81E063E070E047EB0E946F
:107BE000533C81E064E070E040E00E94533C81E05F
:107BF00065E070E04FEF0E94533C81E066E070E08A
:107C00004FEF0E94533C81E067E070E04FEF0E942D
:107C1000533C81E068E070E040E00E94533C81E02A
:107C200069E070E040E00E94533C81E06AE070E06F
:107C300048E00E94533C81E06BE070E04CED0E9414
:107C4000533C81E06CE070E041E00E94533C81E0F5
:107C50006DE070E042E00E94533C81E06EE070E035
:107C600043E00E94533C81E06FE070E049EA0E94EB
:107C7000533C81E060E170E04EEF0E94533C81E0B4
:107C800061E170E047EB0E94533C81E062E170E00B
:107C900041EB0E94533C81E06AE170E045E50E94BF
:107CA000533C81E06BE170E045E50E94533C81E08C
:107CB00060E074E041E00E94533C81E064E074E0E5
:107CC00040E00E94533C81E065E074E047E10E949F
:107CD000533C81E061E074E041E00E94533C80E06D
:107CE00063E074E040E00E94533C833191F481E012
:107CF00061E074E042E00E94533C80E063E074E0A5
:107D000040E00E94533C843121F4EE24FF2487019B
:107D100005C081E061E074E040E1C7CF80E063E04E
:107D200074E040E00E94533C873109F03FC080E09E
:107D300066E274E040E00E94533C182F80E067E266
:107D400074E040E00E94533C312F20E0E82EFF24F5
:107D5000E22AF32A80E068E274E040E00E94533CAB
:107D6000182F80E069E274E040E00E94533C312F1C
:107D700020E0082F10E0022B132B98012E0D3F1D41
:107D800081E068E274E0432F0E94533CE00E81E002
:107D900069E274E04E2D0E94533C81E061E074E0A2
:107DA00040E40E94533CFF24F39415C00894E11C66
:107DB000F11C011D111D81EDE81682E1F80683E139
:107DC000080780E0180708F4A9CFE0910301F091BB
:107DD00004010995A3CF0E94A03C803309F441C05F
:107DE0008133E1F40E94A03C803209F0ACC184E10F
:107DF0000E94243D81E40E94243D86E50E94243DAA
:107E000082E50E94243D80E20E94243D89E40E9494
:107E1000243D83E50E94243D80E521C1803439F46E
:107E20000E94A03C8638E8F00E94A03C1AC0813431
:107E300099F40E94A03C803811F482E081C181381D
:107E400011F481E07DC1823811F480E179C1883973
:107E500009F075C183E074C1823431F484E10E9479
:107E60001A3D0E94693DB7CF853411F485E0F7CF04
:107E70008035B9F38235A9F3813599F3853549F415
:107E80000E94A03C809305010E94A03C80930601C3
:107E9000E8CF8635C9F40E94A03C803389F40E9463
:107EA000A03C0E94A03C182F0E94A03C112311F47A
:107EB0008EE146C1113011F485E942C18FE040C125
:107EC00083E00E941A3D3BC1843609F0CEC00E9477
:107ED000A03C809308020E94A03C809307028091FE
:107EE0000B028E7F80930B020E94A03C853429F404
:107EF00080910B02816080930B0200E010E008C0CB
:107F00000E94A03CF801E95FFE4F80830F5F1F4F86
:107F100080910702909108020817190788F30E94C0
:107F2000A03C803209F00FC180910B0280FF2BC072
:107F30002091050130910601220F331F3093060175
:107F400020930501609107027091080240E050E023
:107F500010C0F999FECFCA01820F931F92BD81BD57
:107F6000FA01E95FFE4F808180BDFA9AF99A4F5F6E
:107F70005F4F4617570768F3260F371F30930601E8
:107F8000209305016BC0809106018823880F880B20
:107F90008F2180930A028091050190910601880F3C
:107FA000991F90930601809305018091070280FF3D
:107FB00009C08091070290910802019690930802EF
:107FC00080930702F894F999FECF1127E0910501FB
:107FD000F0910601C7E0D1E080910702909108027C
:107FE000103091F40091570001700130D9F303E093
:107FF00000935700E8950091570001700130D9F3C4
:1080000001E100935700E8950990199000915700FD
:1080100001700130D9F301E000935700E895139502
:10802000103498F011270091570001700130D9F3F6
:1080300005E000935700E89500915700017001306A
:10804000D9F301E100935700E8953296029709F0C1
:10805000C7CF103011F00296E5CF112484E10E94C1
:10806000243D80E10E94243DB6CE843709F054C0FF
:108070000E94A03C809308020E94A03C80930702CB
:108080008091050190910601880F991F9093060138
:10809000809305010E94A03C90910B02853411F45D
:1080A000916001C09E7F90930B020E94A03C8032A1
:1080B00009F091CE84E10E94243D00E010E024C04C
:1080C00080910B0280FF0BC0F999FECF80910501D2
:1080D0009091060192BD81BDF89A80B508C081FDDE
:1080E00008C0E0910501F0910601E4918E2F0E94F5
:1080F000243D80910501909106010196909306011F
:10810000809305010F5F1F4F809107029091080235
:1081100008171907A8F2A5CF853779F40E94A03C6B
:10812000803289F484E10E94243D8EE10E94243D46
:1081300085E90E94243D8FE092CF863721F480E0CC
:108140000E94813D48CE809102018F5F80930201A1
:10815000853009F040CEE0910301F09104010995CA
:068160003ACEF894FFCFB7
:02816600800097
:040000030000780081
:00000001FF
