:1078000011E0A0E0B1E0E0EAFFE702C005900D92D0
:10781000A030B107D9F712E0A0E0B1E001C01D929D
:10782000AE30B107E1F711248FEF98E09EBF8DBF16
:107830008091600088618093600010926000209ABF
:10784000289A84B18C6284B92A9A80E58CBD1DBCCB
:1078500081E063E070E049EA70D281E062E070E0CC
:107860004EEF6BD281E063E070E047EB66D281E0DF
:1078700064E070E040E061D281E065E070E04FEFED
:107880005CD281E066E070E04FEF57D281E067E0C4
:1078900070E04FEF52D281E068E070E040E04DD2FE
:1078A00081E069E070E040E048D281E06AE070E0A9
:1078B00048E043D281E06BE070E04CED3ED281E0E5
:1078C0006CE070E041E039D281E06DE070E042E0D0
:1078D00034D281E06EE070E043E02FD281E06FE0CF
:1078E00070E049EA2AD281E060E170E04EEF25D2F3
:1078F00081E061E170E047EB20D281E062E170E07D
:1079000041EB1BD281E06AE170E045E516D281E0EF
:107910006BE170E045E511D281E060E074E041E0A8
:107920000CD281E064E074E040E007D281E065E0E1
:1079300074E047E102D281E061E074E041E0FDD112
:1079400080E063E074E040E0F8D1833181F481E0CD
:1079500061E074E042E0F1D180E063E074E040E097
:10796000ECD1843121F4EE24FF24870105C081E0AD
:1079700061E074E040E1CFCF80E063E074E040E09C
:10798000DCD1873109F041C080E066E274E040E07C
:10799000D4D1E82E80E067E274E040E0CED1FF244D
:1079A000FE2CEE2490E0E82AF92A80E068E274E0F8
:1079B00040E0C3D1082F80E069E274E040E0BDD12F
:1079C00010E0102F002790E0082B192BA8014E0D76
:1079D0005F1D452F552781E068E274E0AED1E00ECF
:1079E00081E069E274E04E2DA8D181E061E074E0AD
:1079F00040E4A3D182E088D1FF24F39413E0C12EA8
:107A0000B5E0EB2EA1E1DA2E15C00894E11CF11CC3
:107A1000011D111D89E6E81689E8F80689E00807C6
:107A200080E0180708F4A8CFE0910401F091050167
:107A30000995A2CFBDD1982F803319F4F09201019E
:107A400063C080910101882309F458C19133A1F4E6
:107A5000AFD1803209F04AC184E115D281E413D25A
:107A600086E511D282E50FD280E20DD289E40BD2F5
:107A700083E509D280E531C1903429F499D1863863
:107A800008F442C022C0913491F492D1803811F4AC
:107A900082E02AC1813811F481E026C1823811F4D4
:107AA00080E122C1883909F01EC183E01DC19234F2
:107AB00031F414E101C07CD11150E8F725C09534B0
:107AC00031F476D175D174D173D172D11DC0903596
:107AD000D9F09235C9F0913529F48AEF0ED282E0BF
:107AE00013D10CC1953591F463D18093060160D117
:107AF000809307018091060190910701880F991FDB
:107B000090930701809306018AEFEEC09635A9F4A1
:107B10004FD1803321F04CD14BD14AD1E4C048D170
:107B200047D1182F45D1112311F48EE1DDC011305A
:107B300011F485E9D9C08FE0D7C0943609F07FC031
:107B400037D18093090234D18093080210920C023D
:107B50002FD1853411F4F0920C0200E010E007C040
:107B600027D1F801E85FFE4F80830F5F1F4F8091A0
:107B70000802909109020817190790F319D1803271
:107B800009F0B4C080910C02882309F140E050E074
:107B900016C0F999FECF809106019091070192BD20
:107BA00081BDFA01E85FFE4F208120BDFA9AF99A63
:107BB000019690930701809306014F5F5F4F80917C
:107BC0000802909109024817590718F336C04091EE
:107BD000020150910301F999FECFFA01C0925700BA
:107BE000E89507B600FCFDCFBA01A8E0B1E02C9102
:107BF00011968C91119790E0982F8827820F911DF4
:107C00001296FB010C01F0925700E89511246E5F6B
:107C10007F4FF1E0A838BF0751F7FA01E092570013
:107C2000E89507B600FCFDCFD0925700E895405884
:107C30005F4F509303014093020184E14EC094379B
:107C400009F03FC0B5D080930902B2D080930802FA
:107C500010920C02ADD0853411F4F0920C02A8D031
:107C6000803209F0E7CE84E10ED100E010E021C0BF
:107C700080910C02882359F0F999FECF809106017A
:107C80009091070192BD81BDF89A80B506C0E09140
:107C90000601F0910701E4918E2FF5D08091060145
:107CA00090910701019690930701809306010F5F61
:107CB0001F4F809108029091090208171907C0F21E
:107CC0000DC0953771F474D0803281F484E1DBD03B
:107CD0008EE1D9D085E9D7D08FE0D5D080E1D3D05F
:107CE000A9CE963719F480E008D1A4CE8091000186
:107CF0008F5F80930001853009F09CCEE0910401F4
:107D0000F0910501099596CE282F31E044EF51E01E
:107D10000BC085B1832785B988EE93E0FA013197CE
:107D2000F1F70197D9F72150222399F708958EBDD5
:107D30000DB407FEFDCF8EB508951F93CF93DF934B
:107D4000EB01142F2A98882311F080EF01C08FE0F7
:107D5000EEDF8D2F9927EBDF8C2FE9DF812FE7DF17
:107D60002A9ADF91CF911F91089580E063E074E03B
:107D700040E0E3DF8C3151F481E061E074E040E108
:107D8000DCDFE0910401F0910501099580E063E0FA
:107D900074E040E0D2DF882351F481E061E074E0D8
:107DA00040E1CBDFE0910401F091050109950895D0
:107DB000A0E0B0E0EDEDFEE3C6C0EE24FF248701B5
:107DC000D4DF80E066E274E040E0B7DFC82E80E0F8
:107DD00067E274E040E0B1DFD82E0894E11CF11CAA
:107DE000011D111D89E6E81689E8F80689E00807F3
:107DF00080E0180728F0E0910401F0910501099551
:107E00008C2D90E0982F88272D2D30E0822B932BFE
:107E1000892BB1F280E068E274E040E08EDF082F49
:107E200080E069E274E040E088DF10E0D02FCC27EA
:107E300090E0C82BD92BBE01777097E06F3F790790
:107E400019F460E070E602C06050704A80E040E0E3
:107E500074DF182F21964D2F5527219781E068E276
:107E600074E06BDFCE018F5F482F81E069E274E040
:107E700064DF81E061E074E040E45FDF812FCDB733
:107E8000DEB7E8E07CC01F93CF93DF93182F6DDF40
:107E900080E064E274E040E050DF90E0D82FCC272F
:107EA00080E065E274E040E048DFC80FD11DBE010C
:107EB000777087E06F3F780719F460E070E402C0E4
:107EC0006050704C81E0412F38DF21964D2F5527AF
:107ED000219781E064E274E030DFCE018F5F482FAC
:107EE00081E065E274E029DF81E061E074E040E276
:107EF00024DFDF91CF911F9108951F93182F58DF32
:107F0000803249F484E1BFDF1A3F11F0812FBBDFDB
:107F100080E1B9DF0CC0809100018F5F8093000188
:107F2000853029F4E0910401F091050109951F9134
:107F300008952F923F924F925F926F927F928F920D
:107F40009F92AF92BF92CF92DF92EF92FF920F93E8
:107F50001F93CF93DF93CDB7DEB7CA1BDB0B0FB6F2
:107F6000F894DEBF0FBECDBF09942A8839884888AF
:107F70005F846E847D848C849B84AA84B984C88445
:107F8000DF80EE80FD800C811B81AA81B981CE0F3C
:107F9000D11D0FB6F894DEBF0FBECDBFED01089521
:040000030000780081
:00000001FF
