:1078000011E0A0E0B1E0E2EAFFE702C005900D92CE
:10781000A030B107D9F712E0A0E0B1E001C01D929D
:10782000AE30B107E1F711248FEF98E09EBF8DBF16
:107830008091600088618093600010926000389AA7
:10784000409A84B18C6284B92A9A80E58CBD1DBCB3
:1078500081E063E070E049EA6FD281E062E070E0CD
:107860004EEF6AD281E063E070E047EB65D281E0E1
:1078700064E070E040E060D281E065E070E04FEFEE
:107880005BD281E066E070E04FEF56D281E067E0C6
:1078900070E04FEF51D281E068E070E040E04CD200
:1078A00081E069E070E040E047D281E06AE070E0AA
:1078B00048E042D281E06BE070E04CED3DD281E0E7
:1078C0006CE070E041E038D281E06DE070E042E0D1
:1078D00033D281E06EE070E043E02ED281E06FE0D1
:1078E00070E049EA29D281E060E170E04EEF24D2F5
:1078F00081E061E170E047EB1FD281E062E170E07E
:1079000041EB1AD281E06AE170E045E515D281E0F1
:107910006BE170E045E510D286E0F5D181E060E0F2
:1079200074E041E009D281E064E074E040E004D218
:1079300081E065E074E047E1FFD181E061E074E05F
:1079400041E0FAD180E063E074E040E0F5D18331BA
:1079500081F481E061E074E042E0EED180E063E038
:1079600074E040E0E9D1843121F4EE24FF24870162
:1079700006C081E061E074E040E1DED1CFCF80E07D
:1079800063E074E040E0D8D1873109F03EC080E088
:1079900066E274E040E0D0D1E82E80E067E274E077
:1079A00040E0CAD1FF24FE2CEE2490E0E82AF92A18
:1079B00080E068E274E040E0BFD1082F80E069E237
:1079C00074E040E0B9D110E0102F002790E0082BC0
:1079D000192BA8014E0D5F1D452F552781E068E248
:1079E00074E0AAD1E00E81E069E274E04E2DA4D1EA
:1079F00081E061E074E040E49FD101E013E0F12E0A
:107A0000B5E0EB2EA1E1DA2E17C00894E11CF11CC1
:107A1000011D111D89E6E81689E8F80689E00807C6
:107A200080E0180708F4ABCF86E06DD1E091040147
:107A3000F09105010995A3CFBAD1982F803319F49D
:107A40000093010162C080910101882309F455C1AE
:107A50009133A1F4ACD1803209F047C184E112D254
:107A600081E410D286E50ED282E50CD280E20AD201
:107A700089E408D283E506D280E52EC1903429F44A
:107A800096D1863808F441C022C0913491F48FD148
:107A9000803811F482E027C1813811F481E023C1DC
:107AA000823811F480E11FC1883909F01BC183E0DD
:107AB0001AC1923431F414E101C079D11150E8F7C0
:107AC00024C0953431F473D172D171D170D16FD19A
:107AD0001CC09035D1F09235C1F0913521F428D2F7
:107AE00082E011D10AC1953591F461D180930601EC
:107AF0005ED1809307018091060190910701880F64
:107B0000991F909307018093060112D295CF963565
:107B1000A9F44DD1803321F04AD149D148D1E2C0F6
:107B200046D145D1182F43D1112311F48EE1DBC08A
:107B3000113011F485E9D7C08FE0D5C0943609F033
:107B40007EC035D18093090232D180930802109211
:107B50000C022DD1853411F400930C02C0E0D0E06A
:107B600006C025D1FE01E85FFE4F808321968091FB
:107B7000080290910902C817D90798F318D18032EA
:107B800009F0B3C080910C02882309F140E050E075
:107B900016C0F999FECF809106019091070192BD20
:107BA00081BDFA01E85FFE4F208120BDFA9AF99A63
:107BB000019690930701809306014F5F5F4F80917C
:107BC0000802909109024817590718F336C04091EE
:107BD000020150910301F999FECFFA01F09257008A
:107BE000E89507B600FCFDCFBA01A8E0B1E02C9102
:107BF00011968C91119790E0982F8827820F911DF4
:107C00001296FB010C0100935700E89511246E5F5A
:107C10007F4FF1E0A838BF0751F7FA01E092570013
:107C2000E89507B600FCFDCFD0925700E895405884
:107C30005F4F509303014093020184E14DC094379C
:107C400009F03EC0B4D080930902B1D080930802FD
:107C500010920C02ACD0853411F400930C02A7D022
:107C6000803209F0E9CE84E10DD1C0E0D0E020C03F
:107C700080910C02882359F0F999FECF809106017A
:107C80009091070192BD81BDF89A80B506C0E09140
:107C90000601F0910701E4918E2FF4D08091060146
:107CA0009091070101969093070180930601219618
:107CB0008091080290910902C817D907C8F20DC037
:107CC000953771F474D0803281F484E1DBD08EE199
:107CD000D9D085E9D7D08FE0D5D080E1D3D0ACCE54
:107CE000963719F480E008D1A7CE809100018F5F0C
:107CF00080930001853009F09FCEE0910401F0915E
:107D00000501099599CE282F31E044EF51E00BC0D1
:107D100088B1832788B988EE93E0FA013197F1F7AB
:107D20000197D9F72150222399F708958EBD0DB4FC
:107D300007FEFDCF8EB508951F93CF93DF93EB0120
:107D4000142F2A98882311F080EF01C08FE0EEDF16
:107D50008D2F9927EBDF8C2FE9DF812FE7DF2A9A20
:107D6000DF91CF911F91089580E063E074E040E0DF
:107D7000E3DF8C3151F481E061E074E040E1DCDF6D
:107D8000E0910401F0910501099580E063E074E061
:107D900040E0D2DF882351F481E061E074E040E10B
:107DA000CBDFE0910401F091050109950895A0E071
:107DB000B0E0ECEDFEE3C8C0EE24FF248701D4DF81
:107DC00080E066E274E040E0B7DFC82E80E067E262
:107DD00074E040E0B1DFD82E0894E11CF11C011DD5
:107DE000111D81EDE81682E1F80683E1080780E0C5
:107DF000180728F0E0910401F091050109958C2DF8
:107E000090E0982F88272D2D30E0822B932B892B03
:107E1000B1F280E068E274E040E08EDF082F80E09D
:107E200069E274E040E088DF10E0D02FCC2790E0DA
:107E3000C82BD92BBE01777097E06F3F790719F4F3
:107E400060E070E602C06050704A80E040E074DF9D
:107E5000182F21964D2F5527219781E068E274E075
:107E60006BDFCE018F5F482F81E069E274E064DF51
:107E700081E061E074E040E45FDF812FCDB7DEB7E1
:107E8000E8E07EC01F93CF93DF93182F6DDF80E073
:107E900064E274E040E050DF90E0D82FCC2780E02F
:107EA00065E274E040E048DFC80FD11DBE01777085
:107EB00087E06F3F780719F460E070E402C060501B
:107EC000704C81E0412F38DF21964D2F55272197A7
:107ED00081E064E274E030DFCE018F5F482F81E003
:107EE00065E274E029DF81E061E074E040E224DFD4
:107EF000DF91CF911F9108951F93182F58DF803283
:107F000049F484E1BFDF1A3F11F0812FBBDF80E12C
:107F1000B9DF0CC0809100018F5F80930001853034
:107F200029F4E0910401F091050109951F9108954C
:107F30008AEFE2CF2F923F924F925F926F927F92A1
:107F40008F929F92AF92BF92CF92DF92EF92FF9269
:107F50000F931F93CF93DF93CDB7DEB7CA1BDB0B15
:107F60000FB6F894DEBF0FBECDBF09942A883988BA
:107F700048885F846E847D848C849B84AA84B984C1
:107F8000C884DF80EE80FD800C811B81AA81B981CD
:107F9000CE0FD11D0FB6F894DEBF0FBECDBFED01E1
:027FA000089542
:040000030000780081
:00000001FF
