:1078000011E0A0E0B1E0E8EAFFE702C005900D92C8
:10781000A030B107D9F712E0A0E0B1E001C01D929D
:10782000AE30B107E1F711248FEF98E09EBF8DBF16
:107830008091600088618093600010926000389AA7
:10784000409A84B18C6284B92A9A80E58CBD1DBCB3
:1078500081E063E070E049EA72D281E062E070E0CA
:107860004EEF6DD281E063E070E047EB68D281E0DB
:1078700064E070E040E063D281E065E070E04FEFEB
:107880005ED281E066E070E04FEF59D281E067E0C0
:1078900070E04FEF54D281E068E070E040E04FD2FA
:1078A00081E069E070E040E04AD281E06AE070E0A7
:1078B00048E045D281E06BE070E04CED40D281E0E1
:1078C0006CE070E041E03BD281E06DE070E042E0CE
:1078D00036D281E06EE070E043E031D281E06FE0CB
:1078E00070E049EA2CD281E060E170E04EEF27D2EF
:1078F00081E061E170E047EB22D281E062E170E07B
:1079000041EB1DD281E06AE170E045E518D281E0EB
:107910006BE170E045E513D286E0F8D181E060E0EC
:1079200074E041E00CD281E064E074E040E007D212
:1079300081E065E074E047E102D281E061E074E05B
:1079400041E0FDD180E063E074E040E0F8D18331B4
:1079500081F481E061E074E042E0F1D180E063E035
:1079600074E040E0ECD1843121F4EE24FF2487015F
:1079700006C081E061E074E040E1E1D1CFCF80E07A
:1079800063E074E040E0DBD1873109F041C080E082
:1079900066E274E040E0D3D1E82E80E067E274E074
:1079A00040E0CDD1FF24FE2CEE2490E0E82AF92A15
:1079B00080E068E274E040E0C2D1082F80E069E234
:1079C00074E040E0BCD110E0102F002790E0082BBD
:1079D000192BA8014E0D5F1D452F552781E068E248
:1079E00074E0ADD1E00E81E069E274E04E2DA7D1E4
:1079F00081E061E074E040E4A2D186E087D1FF2419
:107A0000F39413E0E12EB5E0DB2EA1E1CA2E15C000
:107A10000894E11CF11C011D111D81EDE81682E1A5
:107A2000F80683E1080780E0180708F4A8CFE09182
:107A30000401F09105010995A2CFBCD1982F8033A4
:107A400019F4F092010162C080910101882309F4C8
:107A500057C19133A1F4AED1803209F049C184E11C
:107A600014D281E412D286E510D282E50ED280E2F1
:107A70000CD289E40AD283E508D280E530C1903483
:107A800029F498D1863808F441C022C0913491F489
:107A900091D1803811F482E029C1813811F481E05C
:107AA00025C1823811F480E121C1883909F01DC156
:107AB00083E01CC1923431F414E101C07BD1115038
:107AC000E8F724C0953431F475D174D173D172D1F3
:107AD00071D11CC09035D1F09235C1F0913521F4AF
:107AE0002AD282E013D10CC1953591F463D18093F1
:107AF000060160D1809307018091060190910701F2
:107B0000880F991F909307018093060114D295CF97
:107B10009635A9F44FD1803321F04CD14BD14AD1C5
:107B2000E4C048D147D1182F45D1112311F48EE17B
:107B3000DDC0113011F485E9D9C08FE0D7C094368B
:107B400009F07FC037D18093090234D180930802B5
:107B500010920C022FD1853411F4F0920C0200E047
:107B600010E007C027D1F801E85FFE4F80830F5F68
:107B70001F4F80910802909109020817190790F38E
:107B800019D1803209F0B4C080910C02882309F128
:107B900040E050E016C0F999FECF80910601909127
:107BA000070192BD81BDFA01E85FFE4F208120BD33
:107BB000FA9AF99A019690930701809306014F5F14
:107BC0005F4F80910802909109024817590718F3F6
:107BD00036C04091020150910301F999FECFFA019C
:107BE000E0925700E89507B600FCFDCFBA01A8E087
:107BF000B1E02C9111968C91119790E0982F8827E5
:107C0000820F911D1296FB010C01F0925700E8952E
:107C100011246E5F7F4FF1E0A838BF0751F7FA01DA
:107C2000D0925700E89507B600FCFDCFC0925700F0
:107C3000E89540585F4F509303014093020184E15F
:107C40004EC0943709F03FC0B5D080930902B2D03E
:107C50008093080210920C02ADD0853411F4F0929A
:107C60000C02A8D0803209F0E8CE84E10ED100E009
:107C700010E021C080910C02882359F0F999FECFC1
:107C8000809106019091070192BD81BDF89A80B55F
:107C900006C0E0910601F0910701E4918E2FF5D026
:107CA00080910601909107010196909307018093BE
:107CB00006010F5F1F4F809108029091090208177B
:107CC0001907C0F20DC0953771F474D0803281F479
:107CD00084E1DBD08EE1D9D085E9D7D08FE0D5D053
:107CE00080E1D3D0AACE963719F480E008D1A5CE92
:107CF000809100018F5F80930001853009F09DCE57
:107D0000E0910401F0910501099597CE282F31E00B
:107D100044EF51E00BC088B1832788B988EE93E027
:107D2000FA013197F1F70197D9F72150222399F7FA
:107D300008958EBD0DB407FEFDCF8EB508951F9337
:107D4000CF93DF93EB01142F2A98882311F080EF53
:107D500001C08FE0EEDF8D2F9927EBDF8C2FE9DF5D
:107D6000812FE7DF2A9ADF91CF911F91089580E05C
:107D700063E074E040E0E3DF8C3151F481E061E0E6
:107D800074E040E1DCDFE0910401F0910501099528
:107D900080E063E074E040E0D2DF882351F481E0CA
:107DA00061E074E040E1CBDFE0910401F091050176
:107DB00009950895A0E0B0E0EFEDFEE3C8C0EE2421
:107DC000FF248701D4DF80E066E274E040E0B7DFA3
:107DD000C82E80E067E274E040E0B1DFD82E08945E
:107DE000E11CF11C011D111D81EDE81682E1F80670
:107DF00083E1080780E0180728F0E0910401F09182
:107E0000050109958C2D90E0982F88272D2D30E0C5
:107E1000822B932B892BB1F280E068E274E040E082
:107E20008EDF082F80E069E274E040E088DF10E038
:107E3000D02FCC2790E0C82BD92BBE01777097E0CC
:107E40006F3F790719F460E070E602C06050704A35
:107E500080E040E074DF182F21964D2F55272197A1
:107E600081E068E274E06BDFCE018F5F482F81E034
:107E700069E274E064DF81E061E074E040E45FDFC8
:107E8000812FCDB7DEB7E8E07EC01F93CF93DF939D
:107E9000182F6DDF80E064E274E040E050DF90E096
:107EA000D82FCC2780E065E274E040E048DFC80FBF
:107EB000D11DBE01777087E06F3F780719F460E04D
:107EC00070E402C06050704C81E0412F38DF219691
:107ED0004D2F5527219781E064E274E030DFCE0119
:107EE0008F5F482F81E065E274E029DF81E061E087
:107EF00074E040E224DFDF91CF911F9108951F933A
:107F0000182F58DF803249F484E1BFDF1A3F11F0A7
:107F1000812FBBDF80E1B9DF0CC0809100018F5F52
:107F200080930001853029F4E0910401F09105016E
:107F300009951F9108958AEFE2CF2F923F924F92B9
:107F40005F926F927F928F929F92AF92BF92CF92E9
:107F5000DF92EF92FF920F931F93CF93DF93CDB7F2
:107F6000DEB7CA1BDB0B0FB6F894DEBF0FBECDBF6A
:107F700009942A88398848885F846E847D848C843B
:107F80009B84AA84B984C884DF80EE80FD800C8144
:107F90001B81AA81B981CE0FD11D0FB6F894DEBF27
:087FA0000FBECDBFED010895F5
:040000030000780081
:00000001FF
